:1000000009C019C018C017C016C015C014C013C04D
:1000100012C011C011241FBECFE9CDBF10E0A0E671
:10002000B0E0EAEFF3E002C005900D92A236B1070E
:10003000D9F7A5D0E0C1E4CF98E087FF02C0B99816
:1000400001C0B99AB898B89A880F9150B1F7B8988A
:10005000B89A0895CF93C82F97B39C7F97BBB99A4E
:10006000B89A8EE4E9DF8C2FE7DFB898B998CF9182
:1000700008958091600084608093600080916000AA
:10008000E9DF809160008B7F809360008091600049
:10009000E1CFCF93C82F80916000662311F081607B
:1000A00001C08E7F80936000809160008D7F80937F
:1000B000600080916000CEDF809160008F7080933F
:1000C0006000C7FF05C08091600080688093600079
:1000D000C6FF05C080916000806480936000C5FF0A
:1000E00005C080916000806280936000C4FF05C0FD
:1000F0008091600080618093600080916000AADF41
:10010000B8DF809160008F7080936000C3FF05C0EE
:1001100080916000806880936000C2FF05C080917C
:100120006000806480936000C1FF05C08091600022
:10013000806280936000C0FF05C080916000806194
:10014000809360008091600085DFCF9192CF61E065
:10015000A0CF8FEB92E10197F1F700C00000089566
:10016000CF93DF931F92CDB7DD278983F2DF60E065
:1001700089810F90DF91CF918CCF7BDFEACFCF9336
:10018000DF93CDB7DD27CC50CDBFE3DF389A3D9A62
:1001900086B1836886B9DDDF88B38C7F88BBB89869
:1001A000B998D7DF8091600055DFD3DF8091600080
:1001B000806380936000809160004CDFDEDFDDDFD4
:1001C000DCDF809160008F7E809360008091600012
:1001D00041DFD3DF88E2C4DF86E0C2DF8CE0C0DF2E
:1001E000612C712C812C912C0EEF1FEF3AE0232E05
:1001F000312C412C512CC401801B910B019603978B
:1002000038F4369A3699FECF85B0912CA2DFF3CF21
:100210008114910429F421E030E0261937093901CD
:100220006114710449F0C40125E0880F991F2A95D3
:10023000E1F79A87898707C0D401AA0FBB1FAA0FCD
:10024000BB1FBA87A98729853A85A901A12C61140A
:10025000710449F0B12CC12CADEBDA2EB7E3EB2ED3
:1002600016E8F12E09C060ECB62E77E1C72EECE55A
:10027000DE2EF2E2EF2EF12C00E010E09A0140E0D9
:1002800050E060E070E080E090E087D029833A831E
:100290004B835C836D837E838F8398878D819E8162
:1002A000AF81B88520E230E080FF02C0B99801C07C
:1002B000B99ABC98BC9AB695A79597958795215001
:1002C00031092115310581F7B99A88E090E0BC9891
:1002D000BC9A01970097D9F7BB98BB9A81E040DFA1
:1002E00082E03EDF05E010E080E1C82E87E2D82EF4
:1002F000E12CF12CA985BA85CD01A0E0B0E0898779
:100300009A87AB87BC8769857A858B859C85A70191
:10031000960121D0CA01B901A20191011CD080E34C
:10032000860F15DFC701B601A201910114D0690142
:100330007A01015011090115110529F780E207DF43
:100340006114710411F08BE402DF88E400DF8AE7B6
:10035000FEDE840150CFA1E21A2EAA1BBB1BFD01B9
:100360000DC0AA1FBB1FEE1FFF1FA217B307E40794
:10037000F50720F0A21BB30BE40BF50B661F771FEC
:10038000881F991F1A9469F76095709580959095CC
:100390009B01AC01BD01CF010895DF93CF939F92E4
:1003A000A0E49A2E0024D001E001F00116950795F3
:1003B000F794E794D794C794B794A79448F4106837
:1003C000A20FB31FC41FD51FE61FF71F081E191E5B
:1003D000220F331F441F551F661F771F881F991F49
:1003E0009A9421F79D01AE01BF01C00111249F9095
:0A03F000CF91DF910895F894FFCF3C
:0203FA000800F9
:00000001FF
